:040E000000000011DD
:040E040000000011D9
:040E080000000011D5
:040E0C0000000011D1
:040E100000000011CD
:040E140000000011C9
:040E180000000011C5
:040E1C0000000011C1
:040E200000000011BD
:040E240000000011B9
:040E280000000011B5
:040E2C0000000011B1
:040E300000000011AD
:040E340000000011A9
:040E380000000011A5
:040E3C0000000011A1
:040E4000000000119D
:040E44000000001199
:040E48000000001195
:040E4C000000001191
:040E5000000000118D
:040E54000000001189
:040E58000000001185
:040E5C000000001181
:040E6000000000117D
:040E64000000001179
:040E68000000001175
:040E6C000000001171
:040E7000000000116D
:040E74000000001169
:040E78000000001165
:040E7C000000001161
:040E8000000000115D
:040E84000000001159
:040E88000000001155
:040E8C000000001151
:040E9000000000114D
:040E94000000001149
:040E98000000001145
:040E9C000000001141
:040EA000000000113D
:040EA4000000001139
:040EA8000000001135
:040EAC000000001131
:040EB000000000112D
:040EB4000000001129
:040EB8000000001125
:040EBC000000001121
:040EC000000000111D
:040EC4000000001119
:040EC8000000001115
:040ECC000000001111
:040ED000000000110D
:040ED4000000001109
:040ED8000000001105
:040EDC000000001101
:040EE00000000011FD
:040EE40000000011F9
:040EE80000000011F5
:040EEC0000000011F1
:040EF00000000011ED
:040EF40000000011E9
:040EF80000000011E5
:040EFC0000000011E1
:040F000000000011DC
:040F040000000011D8
:040F080000000011D4
:040F0C0000000011D0
:040F100000000011CC
:040F140000000011C8
:040F180000000011C4
:040F1C0000000011C0
:040F200000000011BC
:040F240000000011B8
:040F280000000011B4
:040F2C0000000011B0
:040F300000000011AC
:040F340000000011A8
:040F380000000011A4
:040F3C0000000011A0
:040F4000000000119C
:040F44000000001198
:040F48000000001194
:040F4C000000001190
:040F5000000000118C
:040F54000000001188
:040F58000000001184
:040F5C000000001180
:040F6000000000117C
:040F64000000001178
:040F68000000001174
:040F6C000000001170
:040F7000000000116C
:040F74000000001168
:040F78000000001164
:040F7C000000001160
:040F8000000000115C
:040F84000000001158
:040F88000000001154
:040F8C000000001150
:040F9000000000114C
:040F94000000001148
:040F98000000001144
:040F9C000000001140
:040FA000000000113C
:040FA4000000001138
:040FA8000000001134
:040FAC000000001130
:040FB000000000112C
:040FB4000000001128
:040FB8000000001124
:040FBC000000001120
:040FC000000000111C
:040FC4000000001118
:040FC8000000001114
:040FCC000000001110
:040FD000000000110C
:040FD4000000001108
:040FD8000000001104
:040FDC000000001100
:040FE00000000011FC
:040FE40000000011F8
:040FE80000000011F4
:040FEC0000000011F0
:040FF00000000011EC
:040FF40000000011E8
:040FF80000000011E4
:040FFC0000000011E0
:00000001FF
